:020000040000FA
:100000000C945C000C9484000C9484000C94840088
:100010000C9484000C9484000C9484000C94840050
:100020000C9484000C9484000C9484000C94840040
:100030000C9484000C9484000C9484000C94840030
:100040000C949B020C9484000C940B030C94E5021A
:100050000C9484000C9484000C9484000C94840010
:100060000C9484000C9484000C9484000C94840000
:100070000C9484000C9484000C9484000C948400F0
:100080000C9484000C9484000C9484000C948400E0
:100090000C9484000C9484000C9484000C948400D0
:1000A0000C9484000C9484000C9484000C948400C0
:1000B0000C9484003D035C0511241FBECFEFD8E0F3
:1000C000DEBFCDBF21E0A2E3B1E001C01D92A33E9F
:1000D000B207E1F711E0A0E0B1E0EEE8FFE002C016
:1000E00005900D92A233B107D9F710E0CBE5D0E02F
:1000F00004C02197FE010E94B905CA35D107C9F78E
:100100000E9476030C94BA070C9400000895AF92F5
:10011000BF92CF92DF92EF92FF920F931F93CF93F4
:10012000DF936C017B018B01040F151FEB015E0156
:10013000AE18BF08C017D10759F06991D601ED91EB
:10014000FC910190F081E02DC6010995892B79F78A
:10015000C501DF91CF911F910F91FF90EF90DF903C
:10016000CF90BF90AF900895FC01538D448D252F03
:1001700030E0842F90E0821B930B541710F0CF9641
:10018000089501970895FC01918D828D981761F073
:10019000A28DAE0FBF2FB11D5D968C91928D9F5F8A
:1001A0009F73928F90E008958FEF9FEF08952FB780
:1001B000F8948091370190913801A0913901B09164
:1001C0003A012FBF8093440190934501A0934601CB
:1001D000B09347018CE391E00E94C30097FF26C0D3
:1001E0002FB7F8948091370190913801A09139018F
:1001F000B0913A012FBF4091440150914501609167
:10020000460170914701841B950BA60BB70B4091DB
:100210004001509141016091420170914301841766
:100220009507A607B707B0F28FEF9FEF0895FC017F
:10023000918D828D981731F0828DE80FF11D858D9B
:1002400090E008958FEF9FEF0895FC01918D228D2E
:10025000892F90E0805C9F4F821B91098F739927B3
:1002600008958CE391E00E94250121E0892B09F497
:1002700020E0822F0895FC01A48DA80FB92FB11D95
:10028000A35ABF4F2C91848D90E001968F739927CC
:10029000848FA689B7892C93A089B1898C918370AA
:1002A00080648C93938D848D981306C00288F389A3
:1002B000E02D80818F7D80830895EF92FF920F93D0
:1002C0001F93CF93DF93EC0181E0888F9B8D8C8D02
:1002D00098131AC0E889F989808185FF15C09FB7F6
:1002E000F894EE89FF896083E889F98980818370B9
:1002F000806480839FBF81E090E0DF91CF911F9168
:100300000F91FF90EF900895F62E0B8D10E00F5F88
:100310001F4F0F731127E02E8C8D8E110CC00FB65E
:1003200007FCFACFE889F989808185FFF5CFCE01F6
:100330000E943B01F1CFEB8DEC0FFD2FF11DE35A35
:10034000FF4FF0829FB7F8940B8FEA89FB89808179
:100350008062CFCFCF93DF93EC01888D8823B9F0F3
:10036000AA89BB89E889F9898C9185FD03C08081C0
:1003700086FD0DC00FB607FCF7CF8C9185FFF2CF3D
:10038000808185FFEDCFCE010E943B01E9CFDF9157
:10039000CF91089580E090E0892B29F00E943101EF
:1003A00081110E94000080E090E0892B49F080E0FC
:1003B00090E0892B29F00E94000081110C9400002C
:1003C0000895EF92FF920F931F93CF93DF937C01D9
:1003D000DC0114960D911C91602F90E080E00E944A
:1003E0007405D0E0C0E01127C017D107C4F4F701AD
:1003F00084819581C817D90728F40190F081E02DF8
:10040000309751F410923B01EBE3F1E021966081CB
:10041000CE010E947405E8CFEC0FFD1FF7CFDF91EE
:10042000CF911F910F91FF90EF90089542E050E01F
:1004300068E171E08CE391E00C948700CF93DF9347
:10044000FC0101900020E9F73197AF01481B590BDF
:10045000BC018CE391E00E948700EC010E9416022F
:100460008C0F9D1FDF91CF910895FC0180819181B8
:10047000009711F00C945B0608950F931F93CF9390
:10048000DF93EC0188819981009759F02A813B81A3
:100490002617370730F081E0DF91CF911F910F9140
:1004A00008958B016F5F7F4F0E94E406009759F01B
:1004B000998388831B830A832C813D81232B59F7E1
:1004C000FC011082E8CF80E0E7CFEF92FF920F931C
:1004D0001F93CF93DF93EC017B01FB010190002080
:1004E000E9F731978F01061B170BB8010E943D02F7
:1004F00028813981811113C02115310519F0C901F5
:100500000E945B06198218821D821C821B821A823D
:10051000DF91CF911F910F91FF90EF9008951D8370
:100520000C83B701C901DF91CF911F910F91FF900B
:10053000EF900C94B3071F920F920FB60F921124F5
:100540002F933F938F939F93AF93BF9380913701E6
:1005500090913801A0913901B0913A013091360162
:1005600023E0230F2D3768F126E8230F0296A11D03
:10057000B11D209336018093370190933801A093E9
:100580003901B0933A018091320190913301A091E9
:100590003401B09135010196A11DB11D8093320146
:1005A00090933301A0933401B0933501BF91AF9183
:1005B0009F918F913F912F910F900FBE0F901F90A1
:1005C00018950196A11DB11DD4CF1F920F920FB6A1
:1005D0000F9211242F933F934F935F936F937F93C9
:1005E0008F939F93AF93BF93EF93FF938CE391E02F
:1005F0000E943B01FF91EF91BF91AF919F918F912D
:100600007F916F915F914F913F912F910F900FBE0E
:100610000F901F9018951F920F920FB60F921124F2
:100620002F938F939F93EF93FF93E0914C01F09161
:100630004D018081E0915201F091530182FD1BC078
:100640009081809155018F5F8F73209156018217A1
:1006500041F0E0915501F0E0E45CFE4F958F80930E
:100660005501FF91EF919F918F912F910F900FBEA8
:100670000F901F9018958081F4CFECE3F1E0138286
:10068000128288EE93E0A0E0B0E084839583A68395
:10069000B7838AE091E09183808385EC90E0958731
:1006A000848784EC90E09787868780EC90E0918B3C
:1006B000808B81EC90E0938B828B82EC90E0958B29
:1006C000848B86EC90E0978B868B118E128E138E26
:1006D000148EE9EDF1E011821082138212821582EC
:1006E00014826AE171E0CF010C946502CF93DF932D
:1006F000CDB7DEB728970FB6F894DEBF0FBECDBFDB
:10070000789484B5836084BD85B5836085BD809110
:100710006E00816080936E0092E0909381008091E2
:10072000810081608093810080918000816080934E
:1007300080008091B10084608093B1008091B0000E
:1007400081608093B00080919100836080939100DC
:10075000809190008160809390008091A1008360DF
:100760008093A1008091A00081608093A00087E821
:1007700080937A001092C100E0914C01F0914D01FC
:100780009083E0914801F09149011082E0914A0183
:10079000F0914B018FEC808310925401E091500155
:1007A000F091510186E08083E0914E01F0914F017C
:1007B000808188698083E0914E01F0914F018081B2
:1007C0008F7D80838AE090E0A0E0B0E080934001DC
:1007D00090934101A0934201B09343018CE391E0D7
:1007E0000E942501181619060CF013C11A821982ED
:1007F0001C821B821E821D826AE171E0CE0101967D
:100800000E9465020E94D70097FD1BC08F83188647
:100810000D811E810F5F1F4FB801CE0101960E940E
:100820003D02882379F329813A818D819E81BE0121
:10083000695F7F4F820F931F0E94B3071E830D8352
:10084000E1CF8091D9019091DA01009709F46BC052
:1008500069817A816115710509F463C04091DB01FA
:100860005091DC012D813E814217530708F459C095
:100870000E94B3078D819E819093DE018093DD01FC
:100880001E821D82CE0101960E943502C090D901C0
:10089000D090DA01C114D10449F00091DD0110912A
:1008A000DE0176010115110509F055C0C090DD018A
:1008B000D090DE010091D9011091DA01C114D10468
:1008C00009F4CAC06BE171E0C8010E94AA077C016B
:1008D000892B09F0A1C0ADB6BEB690E080E00E94C1
:1008E0006C05082F10E0C80101962DB73EB7281BF4
:1008F000390B0FB6F8943EBF0FBE2DBF8DB79EB714
:1009000001966C014C01E016F1060CF060C09FEFFF
:10091000E91AF90AC7010E946C05F40181934F019D
:10092000F2CF0E945B0689819A819093DA018093CD
:10093000D9018B819C819093DC018093DB018D81B7
:100940009E819093DE018093DD011A8219821C82C0
:100950001B8296CF750157012FEFA21AB20AF70139
:100960008081082E000C990B0E946005892B91F75D
:10097000015011090C0D1D1DF8018081082E000C7D
:10098000990B0E946005892B31F00E151F0518F098
:1009900001501109F1CFA8014F5F5F4F4E195F0958
:1009A0005093DE014093DD01CE14DF0420F4B70143
:1009B000C6010E94A107E091D901F091DA0180916E
:1009C000DD019091DE01E80FF91F10826FCFF60173
:1009D000E00FF11F10821A8219821C821B821E8274
:1009E0001D82B601CE0101960E9465020FB6F894F1
:1009F000BEBE0FBEADBE4D815E8169817A818CE342
:100A000091E00E9487000E941602CE0101960E948A
:100A100035020E94CA01E2CE6FE171E0C8010E9476
:100A2000AA07892BC9F41A8219821C821B821E8292
:100A30001D826AE171E0CE0101960E946502CE013D
:100A400001960E94E101CE0101960E94350283E2E7
:100A500091E00E941E02DDCF1A8219821C821B8245
:100A60001E821D8201151105A9F0B601CE01019665
:100A70000E943D0229813A81811117C0211531055B
:100A800019F0C9010E945B061A8219821E821D821A
:100A90001C821B82CE0101960E94E101CE010196CB
:100AA0000E9435028BE291E0D4CFDE82CD82B80184
:100AB000C9010E94B307EECF89ED91E00C94350295
:100AC00091110C946905803219F089508550C8F74E
:100AD0000895992788270895F999FECF92BD81BD81
:100AE000F89A992780B50895262FF999FECF1FBA55
:100AF00092BD81BD20BD0FB6F894FA9AF99A0FBE47
:100B0000019608952F923F924F925F926F927F923B
:100B10008F929F92AF92BF92CF92DF92EF92FF920D
:100B20000F931F93CF93DF93CDB7DEB7CA1BDB0BB9
:100B30000FB6F894DEBF0FBECDBF09942A8839885E
:100B400048885F846E847D848C849B84AA84B98465
:100B5000C884DF80EE80FD800C811B81AA81B98171
:100B6000CE0FD11D0FB6F894DEBF0FBECDBFED0185
:100B70000895EE0FFF1F0590F491E02D09940F9357
:100B80001F93CF93DF938230910510F482E090E0C1
:100B9000E091E101F091E20130E020E0B0E0A0E07E
:100BA000309799F42115310509F44AC0281B390BF7
:100BB00024303105D8F58A819B816115710589F151
:100BC000FB0193838283FE0111C040815181028128
:100BD000138148175907E0F04817590799F41097FF
:100BE00061F012960C93129713961C933296CF01D4
:100BF000DF91CF911F910F9108950093E101109320
:100C0000E201F4CF2115310551F04217530738F0B6
:100C1000A901DB019A01BD01DF01F801C1CFEF019C
:100C2000F9CF9093E2018093E101CDCFFE01E20F75
:100C3000F31F819391932250310939832883D7CFB1
:100C40002091DF013091E001232B41F4209102013A
:100C5000309103013093E0012093DF0120910001E6
:100C6000309101012115310541F42DB73EB7409176
:100C7000040150910501241B350BE091DF01F09137
:100C8000E001E217F307A0F42E1B3F0B28173907EA
:100C900078F0AC014E5F5F4F2417350748F04E0FD8
:100CA0005F1F5093E0014093DF01819391939FCFA9
:100CB000F0E0E0E09CCFCF93DF930097E9F0FC01F8
:100CC000329713821282A091E101B091E201ED010D
:100CD00030E020E01097A1F420813181820F931F32
:100CE0002091DF013091E0012817390709F061C038
:100CF000F093E001E093DF01DF91CF910895EA01E5
:100D0000CE17DF07E8F54A815B819E014115510549
:100D1000B1F7E901FB83EA8349915991C40FD51FCB
:100D2000EC17FD0761F4808191810296840F951F75
:100D3000E90199838883828193819B838A83F0E090
:100D4000E0E012968D919C9113970097B9F52D9143
:100D50003C911197CD010296820F931F2091DF01E4
:100D60003091E0012817390739F6309751F5109284
:100D7000E2011092E101B093E001A093DF01BCCF4A
:100D8000D383C28340815181840F951FC817D9072F
:100D900061F44E5F5F4F88819981480F591F5183DD
:100DA00040838A819B81938382832115310509F0D9
:100DB000B0CFF093E201E093E1019ECFFD01DC01B1
:100DC000C0CF13821282D7CFB0E0A0E0EAEEF6E007
:100DD0000C9484058C01009751F4CB010E94BF054F
:100DE0008C01C801CDB7DEB7E0E10C94A005FC0191
:100DF000E60FF71F9C0122503109E217F30708F4B0
:100E00009DC0D901CD91DC911197C617D70798F0F5
:100E1000C530D10530F3CE0104978617970708F344
:100E2000C61BD70B2297C193D1936D937C93CF01AF
:100E30000E945B06D6CF5B01AC1ABD0A4C018C0E3A
:100E40009D1EA091E101B091E201512C412CF12CA9
:100E5000E12C109731F58091DF019091E001881528
:100E6000990509F05CC04616570608F058C08091F5
:100E7000000190910101009741F48DB79EB7409118
:100E8000040150910501841B950BE817F90708F040
:100E900055C0F093E001E093DF01F90171836083B5
:100EA000A0CF8D919C91119712966C9012971396EA
:100EB0007C901397A815B90559F56C0142E0C40E52
:100EC000D11CCA14DB0420F1AC014A195B09DA0118
:100ED0001296159780F06282738251834083D90104
:100EE0006D937C93E114F10471F0D7011396FC9398
:100EF000EE93129776CF22968C0F9D1FF901918366
:100F00008083F301EFCFF093E201E093E10169CF39
:100F10004816590608F42C017D01D3019ACFCB0164
:100F20000E94BF057C01009749F0AE01B8010E9404
:100F3000A107C8010E945B06870153CF10E000E0C3
:100F400050CFFB01DC0102C001900D924150504096
:100F5000D8F70895FB01DC018D91019080190110F3
:100F6000D9F3990B0895FB01DC0101900D9200204B
:100F7000E1F7089510E0CBE5D0E004C0FE010E9447
:100F8000B9052196CC35D107C9F7F894FFCF0000F9
:100F9000E3018000000000005D018700B400AA01A9
:100FA0002501C30017010D0A006F757400636C61A1
:100FB00000436C656172656400536176656400008E
:107E8000112424B614BE80E07ED021FEEBC08EE02B
:107E90007AD0E0ECF0E0AFE7BFEF4899FECF9096E4
:107EA000489BFDCFB4831197F1F7B2E0B083B8E1FE
:107EB000B18357D0C82F823559F46BD0E0E8FEE784
:107EC000E058F109A89583E089D03097C9F73FC001
:107ED0008D7FF1F453D0D82FA0E0B1E042D08D9344
:107EE000DA13FCCF56D0C1110FC0A0E0B1E0F99970
:107EF000FECF1FBAF2BDE1BD8D9180BDFA9AF99A0D
:107F00003196DA13F4CF23C0A0E0B1E04CD01FC00B
:107F1000C33041F433D0C82F3CD085911BD0C15021
:107F2000E1F715C0C13071F429D0C82F32D0F999CA
:107F3000FECFF2BDE1BDF89A80B50CD03196C150AC
:107F4000B1F705C0C13511F488E01DD022D088E713
:107F500001D0AFCF9091C00095FFFCCF8093C600B9
:107F600008952D9A259A8091C00087FFFCCF84FD4B
:107F700013C0A8958091C6002D980895F2DFE82FD0
:107F8000F0DFF82FEECF98E19093600080936000CF
:107F90000895E7DF803219F088E0F5DFFFCF80EA4F
:107FA000D9CFFB01DC0160E86A0F9F01E0388EE762
:107FB000F807C8F483E012D0309629F48FE38D934C
:107FC0008FEC8C93119781E00D901D9007D0329625
:107FD000A613FACFF90185E001D081E187BFE895CA
:0A7FE00007B600FCFDCF1124089540
:067FFA000319D2CFE73F9E
:00000001FF
